:100000000C9475010C949D010C949D010C949D0120
:100010000C949D010C949D010C949D010C949D01E8
:100020000C949D010C949D010C9474060C94FF0695
:100030000C949D010C949D010C949D010C949D01C8
:100040000C949D010C949D010C949D010C949D01B8
:100050000C949D010C949D010C949D010C94030340
:100060000C949D010C949D010C949D010C949D0198
:100070000C949D010C949D010C949D010C949D0188
:100080000C949D010C949D010C949D010C949D0178
:100090000C949D010C949D010C949D010C949D0168
:1000A0000C949D010C949D010C949D010000000096
:1000B000240027002A002D00300000000000250049
:1000C00028002B002E003100000000002300260035
:1000D00029002C002F000404040404030405020278
:1000E00002020403020202020606060606060404D1
:1000F00002020204040802011040804010204080E7
:10010000408008020401804020100201108010206D
:1001100040400000000200080E0000030401000B34
:1001200000000000000000000000000000000000CF
:10013000070605040100080A0B0C0D090403090455
:1001400022035300650065006500640075006900C6
:100150006E006F0020004C006900740065002000F4
:10016000200018035300650065006500640053001B
:1001700074007500640069006F0012010002000045
:1001800000408628028000010102000112010002E5
:10019000020000408628028000010102000100C127
:1001A0008081C1080B000202020100090400000165
:1001B00002020000052400100105240101010424AD
:1001C000020605240600010705810310004009040A
:1001D0000100020A000000070502024000000705B6
:1001E000830240000005010902A1010901A1008567
:1001F00001050919012903150025019503750181E0
:100200000295017505810305010930093109381589
:1002100081257F750895038106C0C005010906A1E7
:10022000018502050719E029E715002501750195EB
:10023000088102950175088103950675081500254A
:10024000650507190029658100C009040200010342
:100250000000000921010100012265000705840357
:1002600040000100000000000000002A2B280000D0
:10027000000000000000000000000000000000007E
:100280000000002C9EB4A0A1A2A434A6A7A5AE365F
:100290002D3738271E1F20212223242526B333B6CD
:1002A0002EB7B89F8485868788898A8B8C8D8E8FA0
:1002B000909192939495969798999A9B9C9D2F31A3
:1002C00030A3AD350405060708090A0B0C0D0E0F07
:1002D000101112131415161718191A1B1C1DAFB183
:1002E000B0B50000B0059208970911241FBECFEFEA
:1002F000DAE0DEBFCDBF11E0A0E0B1E0E2EFF5E172
:1003000002C005900D92AC33B107D9F711E0ACE310
:10031000B1E001C01D92A53BB107E1F712E0CAEEC2
:10032000D2E004C02297FE010E94F30AC43ED10726
:10033000C9F70E94EA040C94F70A0C94000008958F
:100340000F931F9310923D0110923C012DC0E0507D
:10035000FF4F808161E00E94FA03E0913C01F0913F
:100360003D01E050FF4F808161E00E948704E091F1
:100370003C01F0913D01E75FFE4F808161E00E940A
:10038000FA03E0913C01F0913D01E75FFE4F80816F
:1003900061E00E94870480913C0190913D010196AB
:1003A00090933D0180933C01E0913C01F0913D012F
:1003B000E930F10564F210923D0110923C0146C013
:1003C000E75FFE4F808160E00E94FA03E0913C010C
:1003D000F0913D01E050FF4F808160E00E94870472
:1003E00062E070E080E090E00E944B0300913E01EB
:1003F00010913F01E0913C01F0913D01E75FFE4F1C
:1004000080810E94BA04080F191F10933F010093C6
:100410003E01E0913C01F0913D01E75FFE4F80819C
:1004200061E00E94FA03E0913C01F0913D01E0504F
:10043000FF4F808161E00E94870480913C01909190
:100440003D01019690933D0180933C01E0913C0178
:10045000F0913D01E930F1050CF4B2CF10923D016D
:1004600010923C0136C0E050FF4F808161E00E9455
:10047000FA03E0913C01F0913D01E050FF4F808193
:1004800061E00E948704E0913C01F0913D01E75F4B
:10049000FE4F808160E00E94FA03009140011091BC
:1004A0004101E0913C01F0913D01E75FFE4F808109
:1004B0000E94BA04080F191F1093410100934001D4
:1004C00080913C0190913D01019690933D01809374
:1004D0003C01E0913C01F0913D01E930F1051CF255
:1004E00010923D0110923C0136C0E75FFE4F8081C3
:1004F00061E00E94FA03E0913C01F0913D01E75F69
:10050000FE4F808161E00E948704E0913C01F09100
:100510003D01E050FF4F808160E00E94FA030091AE
:10052000420110914301E0913C01F0913D01E05006
:10053000FF4F80810E94BA04080F191F10934301D6
:100540000093420180913C0190913D01019690936E
:100550003D0180933C01E0913C01F0913D01E93087
:10056000F1051CF280913E0190913F01892B21F50C
:10057000809140019091410169E070E00E94CA0AB7
:10058000892BD1F4809142019091430169E070E0A0
:100590000E94CA0A892B81F480E061E00E94FA037C
:1005A00080E060E00E94870464EF71E080E090E00A
:1005B0000E944B0380E00FC081E061E00E94FA03DB
:1005C00081E060E00E94870464EF71E080E090E0E9
:1005D0000E944B0381E061E00E94870410923F017A
:1005E00010923E011092410110924001109243017D
:1005F0001092420164EF71E080E090E00E944B03B2
:100600001F910F9108951F920F920FB60F92112410
:100610002F933F938F939F93AF93BF938091480104
:1006200090914901A0914A01B0914B0130914C0148
:100630000196A11DB11D232F2D5F2D3720F02D57C1
:100640000196A11DB11D20934C0180934801909308
:100650004901A0934A01B0934B01809144019091CC
:100660004501A0914601B09147010196A11DB11D20
:100670008093440190934501A0934601B0934701B4
:10068000BF91AF919F918F913F912F910F900FBE8E
:100690000F901F9018959B01AC017FB7F894809143
:1006A000440190914501A0914601B091470166B582
:1006B000A89B05C06F3F19F00196A11DB11D7FBF1A
:1006C000BA2FA92F982F8827860F911DA11DB11D24
:1006D00062E0880F991FAA1FBB1F6A95D1F7BC0162
:1006E0002DC0FFB7F8948091440190914501A091ED
:1006F0004601B0914701E6B5A89B05C0EF3F19F050
:100700000196A11DB11DFFBFBA2FA92F982F8827D1
:100710008E0F911DA11DB11DE2E0880F991FAA1F28
:10072000BB1FEA95D1F7861B970B885E9340C8F2F2
:10073000215030404040504068517C4F21153105D8
:100740004105510571F60895789484B5826084BDA1
:1007500084B5816084BD85B5826085BD85B58160C5
:1007600085BDEEE6F0E0808181608083E1E8F0E025
:100770001082808182608083808181608083E0E854
:10078000F0E0808181608083E1E9F0E08081826037
:100790008083808181608083E0E9F0E080818160F6
:1007A0008083E1ECF0E080818460808380818260DE
:1007B0008083808181608083E3ECF0E080818160D0
:1007C0008083E0ECF0E0808182608083E2ECF0E006
:1007D000808181608083EAE7F0E0808184608083AB
:1007E0008081826080838081816080838081806855
:1007F00080830895CF93DF93482F50E0CA018C5037
:100800009F4FFC0134914A525F4FFA018491882333
:1008100069F190E0880F991FFC01E455FF4FA59105
:10082000B491FC01E654FF4FC591D491662351F475
:100830002FB7F8948C91932F909589238C9388816E
:1008400089230BC0623061F42FB7F8948C91932FF9
:10085000909589238C938881832B88832FBF06C032
:100860009FB7F8948C91832B8C939FBFDF91CF918E
:100870000895883071F1893068F4823031F1833025
:1008800020F4813009F042C01DC0833089F08430EB
:10089000E9F512C08B3059F18C3028F48930E9F039
:1008A0008A30A1F51EC08C3031F18E3079F529C027
:1008B000809180008F7703C0809180008F7D80932E
:1008C0008000089584B58F7702C084B58F7D84BD84
:1008D0000895809190008F7707C0809190008F7D60
:1008E00003C080919000877F80939000089580914D
:1008F000C0008F7703C08091C0008F7D8093C000BF
:1009000008958091C200877F8093C2000895FF926E
:100910000F931F93F62E482F50E0CA018E5E9E4F14
:10092000FC012491CA018C509F4FFC0114914A5242
:100930005F4FFA0104910023C9F0222319F0822F9E
:100940000E943904E02FF0E0EE0FFF1FE654FF4F46
:10095000A591B4919FB7F894FF2021F48C91109544
:10096000812302C08C91812B8C939FBF1F910F918B
:10097000FF9008950F931F93482F50E0CA018E5E99
:100980009E4FFC012491CA018C509F4FFC010491A1
:100990004A525F4FFA011491112319F420E030E01C
:1009A00015C0222319F0822F0E943904812F90E074
:1009B000880F991F88539F4FFC01A591B4918C918A
:1009C00020E030E0802311F021E030E0C9011F91E8
:1009D0000F910895CF93DF930E94A40385E591E0E2
:1009E0000E94B1050E949F01C0E0D0E00E94A001DA
:1009F0002097E1F30E940000F9CF282F80914F014A
:100A00008823C1F057FF1AC015C0289890934E0153
:100A10008091F1008193E217F307B9F74115510571
:100A200039F08091F200882319F48BE68093E80076
:100A3000AFBF02C04FEF5FEFCA010895AFB7F894A0
:100A400027702093E9008091F200282F30E02417CE
:100A500035070CF4A901FB019B01240F311D94E61D
:100A6000DACFDF93CF930F92CDB7DEB7BE016F5FC2
:100A70007F4F41E050E00E94FD04019719F02FEFF5
:100A80003FEF03C08981282F30E0C9010F90CF913B
:100A9000DF910895FF920F931F93F82E142F052FC7
:100AA0004091520150915301212F302FC901DC0197
:100AB000FB016EEF29C0F7FE02C0949101C0908146
:100AC000209150013091510124173507ACF48091E9
:100AD000E8008570E1F38091E80082FF03C02FEF0A
:100AE0003FEF17C09093F100C90101968F7390708A
:100AF000892B11F46093E8002F5F3F4F3093510131
:100B000020935001119731961097A9F6812F902FBD
:100B10009C01C9011F910F91FF9008959C01809144
:100B2000E80082FFFCCFF901260F311D03C0809140
:100B3000F1008193E217F307D1F7289884E68093B8
:100B40004E018BEF8093E800CB0108958093E9007C
:100B50008091F200882319F08AE38093E8000895D9
:100B6000089510924F0181E08093D70080EA80932E
:100B7000D80082E189BD09B400FEFDCF61E070E0DC
:100B800080E090E00E944B0380E98093D8008CE0E5
:100B90008093E2001092E000559A209A08955F92A7
:100BA0006F927F928F929F92AF92BF92CF92DF927D
:100BB000EF92FF920F931F93CF93DF93E82E842E33
:100BC000752E80914F01882371F18B01242F352FD1
:100BD000C901EC017AEFF72E67E0962E9E2050E4D3
:100BE000552E8E2D90E040E2A42EB12CA822B922E1
:100BF0003AE3632E20E4C22ED12CC822D92258C059
:100C00009FB7F8949092E9008091E80085FD02C0BA
:100C100020E004C08091F200252D281B9FBF2223D5
:100C200061F4FA9419F42FEF3FEF4DC061E070E0EA
:100C300080E090E00E944B033BC0822F90E0C817F9
:100C4000D9070CF42C2FC21BD1094FB7F8949092FE
:100C5000E900A114B10421F406C01092F100215062
:100C60002223D9F719C0E7FC03C0F801922F10C066
:100C7000C801322F06C0FC010196E491E093F10017
:100C800031503323C1F706C081918093F100915018
:100C90009923D1F7020F111D8091E80085FF05C04F
:100CA000209729F4C114D10411F06092E8004FBFDD
:100CB000209709F0A5CF5D9884E680934D01282DFB
:100CC000372DC9019C01C901DF91CF911F910F916F
:100CD000FF90EF90DF90CF90BF90AF909F908F905C
:100CE0007F906F905F9008951F920F920FB60F92B2
:100CF00011241F932F933F934F935F936F937F9391
:100D00008F939F93AF93BF93EF93FF938091E100F5
:100D10001092E100982F83FF0FC01092E90081E04C
:100D20008093EB001092EC0082E38093ED00109230
:100D30004F0188E08093F00092FF36C083E08093FB
:100D4000E9008091F200882349F08AE38093E8006B
:100D500005C08AE991E00E94D50801C012E09FB762
:100D6000F8941093E9008091F2009FBF882389F7DF
:100D700080914D01882351F080914D0181508093E5
:100D80004D0180914D01882309F45D9A80914E01B7
:100D9000882351F080914E01815080934E018091C3
:100DA0004E01882309F4289AFF91EF91BF91AF91EA
:100DB0009F918F917F916F915F914F913F912F9173
:100DC0001F910F900FBE0F901F9018950F931F93B8
:100DD000DF93CF930F92CDB7DEB719828E010F5FED
:100DE0001F4FC8010E94FB08C8010E94940A898114
:100DF00090E00F90CF91DF911F910F9108951F9276
:100E00000F920FB60F921124EF92FF921F932F9320
:100E10003F934F935F936F937F938F939F93AF9382
:100E2000BF93EF93FF93DF93CF93CDB7DEB7619777
:100E3000DEBFCDBF1092E9008091E80083FF0FC1B3
:100E4000FE0131969E01275F3F4F03C08091F10064
:100E50008193E217F307D1F7289884E680934E0137
:100E600082EF8093E800998197FF05C08091E800A8
:100E700080FFFCCF03C08EEF8093E800292F30E085
:100E8000C90180769070892B09F0C2C08A818823BD
:100E900029F41092F1001092F100D6C0813009F4CB
:100EA000D3C0833009F4D0C0853049F48091E80084
:100EB00080FFFCCF8B8180688093E300C5C08630C3
:100EC00009F07CC01C81EF80F8841230C1F51092CB
:100ED000E9001092510110925001109253011092AA
:100EE00052010E94E60699E0FE013996DF01292FA2
:100EF0001D922A95E9F799871A8791E09E8790E8D5
:100F0000988B9AEF998B2091500130915101275F76
:100F10003F4F3C872B878D871092E900109251013B
:100F200010925001F0925301E092520180E0BF0113
:100F300049E050E00E944A050E94E60685C01092F2
:100F4000E9001092510110925001F0925301E09289
:100F50005201123241F482E290E00E948C0A892B05
:100F600009F476C071C0113079F488E0E816F10414
:100F700019F481E08093540180915401882309F091
:100F80006BC0EAE7F1E013C0133009F061C08B8158
:100F9000882319F4ECE3F1E00AC0823019F4E0E4AC
:100FA000F1E005C0813009F053C0E2E6F1E0449180
:100FB00080E8BF0150E00E944A0546C0873009F42E
:100FC00047C0883021F481E08093F1003DC0893032
:100FD000D9F523703070232BD9F5EFE9F1E091E0DA
:100FE00031E026E39093E9003093EB008491809305
:100FF000EC002093ED009F5F3196953099F78EE7D6
:101000008093EA001092EA008B8180934F011CC00C
:101010008F8198851092E900109251011092500131
:1010200090935301809352018D81882329F4CE013E
:1010300001960E94070906C0823051F4CE01019644
:101040000E945D09882321F08EEF8093E80007C09D
:1010500081E28093EB0003C0ECE8F1E0A8CF619659
:10106000DEBFCDBFCF91DF91FF91EF91BF91AF91E7
:101070009F918F917F916F915F914F913F912F91B0
:101080001F91FF90EF900F900FBE0F901F9018953B
:10109000209196013091970180919801909199014A
:1010A000281B390B2F733070C901089520919601C8
:1010B00030919701809198019091990128173907F3
:1010C00019F42FEF3FEF09C0E0919801F0919901D9
:1010D000EA5AFE4F8081282F30E0C90108952091FF
:1010E000960130919701809198019091990128176C
:1010F000390719F42FEF3FEF13C0E0919801F091F9
:101100009901EA5AFE4F20818091980190919901AE
:1011100001968F739070909399018093980130E0BD
:10112000C901089510929D0110929C0188EE93E0F0
:10113000A0E0B0E080939E0190939F01A093A00156
:10114000B093A10180E291E090939B0180939A017A
:1011500008950F931F93DF93CF930F92CDB7DEB710
:101160008C01698380911901882369F083E0BE01B5
:101170006F5F7F4F41E050E00E94CF0518161906BF
:1011800014F49C0107C081E090E0F801938382830E
:1011900020E030E0C9010F90CF91DF911F910F91B6
:1011A000089583E00E94A6050895CF93DF9312C0AF
:1011B00082E00E9431052FEF8F3F9207C9F0E09146
:1011C0009601F0919701EA5AFE4F8083D0939701E0
:1011D000C0939601C0919601D09197012196CF734B
:1011E000D0708091980190919901C817D90701F7A3
:1011F000DF91CF910895FC0180818E5F808380E82C
:1012000063EA71E042E450E00E944A050895FC015F
:1012100081819081913A59F4813209F04CC080E08B
:1012200062E171E047E050E00E944A0542C091321D
:1012300009F041C0803239F482E191E067E070E06A
:101240000E948E0536C0823209F035C082818093BB
:1012500019018091120190911301A0911401B09194
:101260001501805B9440A040B04019F580911901B0
:1012700080FD12C087E797E79093010880930008EC
:101280002BE088E190E00FB6F894A8958093600079
:101290000FBE209360000DC088E10FB6F8948093D4
:1012A0006000109260000FBEA89510920108109285
:1012B000000881E0089580E00895FC01918180811B
:1012C000813A31F4913089F080E0933089F40DC097
:1012D000813269F49B3021F4828180931A0105C028
:1012E0009A3029F4828180931B0181E0089580E087
:1012F0000895EF92FF920F931F938C01E62EDC016D
:10130000ED91FC910480F581E02D0995F82ED8012E
:10131000ED91FC910680F781E02DC8016E2D0995B5
:101320008F2D90E01F910F91FF90EF9008951092F4
:10133000A8011092AC011092AB0182E391E090936E
:10134000AA018093A9010895EF92FF920F931F9332
:10135000DF93CF930F92CDB7DEB789838B017A01EC
:1013600084E0BE016F5F7F4F41E050E00E94CF05F7
:1013700084E4B801A7010E94CF050F90CF91DF91BF
:101380001F910F91FF90EF90089582E048E050E0A8
:101390000E94A4090895FC01168217821086118606
:1013A0001286138614823496BF010E94C5090895DF
:1013B000DC01683810F0685829C0E62FF0E067FFBC
:1013C00013C0E058F04081E090E002C0880F991F00
:1013D000EA95E2F7809514962C9114972823149699
:1013E0002C93149760E012C0ED59FD4F6491662371
:1013F00019F420E030E01DC067FF08C014968C91FE
:1014000014978D7F14968C9314976F77FD0190E05D
:10141000662321F08681861709F416829F5F319634
:101420009630B1F7CD011496BD010E94C50921E0A7
:1014300030E0C9010895CF93DF93DC01683810F0E4
:10144000685825C0E62FF0E067FF12C0E058F04072
:1014500081E090E002C0880F991FEA95E2F71496A8
:101460002C911497282B14962C93149760E00FC09E
:10147000ED59FD4F64916623D9F167FF08C01496BA
:101480008C911497826014968C9314976F771696AC
:101490008C9116978617A9F117968C911797861736
:1014A00081F118968C911897861759F119968C919D
:1014B0001997861731F11A968C911A97861709F1A8
:1014C0001B968C911B978617E1F0ED01E0E0F0E0B0
:1014D0009E2F8E81882321F4EA0FFB1F668306C0AE
:1014E0009F5F31962196E630F10591F7963049F4E9
:1014F00081E090E013969C938E93129720E030E069
:1015000007C0CD011496BD010E94C50921E030E05D
:10151000C901DF91CF91089580E865EE71E045E65D
:1015200050E00E944A050895FC0180818F5F80830E
:1015300080E86AE472E049E150E00E944A050895BB
:10154000CF92DF92EF92FF920F931F93CF93DF938F
:101550007C016B018A01C0E0D0E00FC0D6016D9123
:101560006D01D701ED91FC910190F081E02DC70153
:101570000995C80FD91F015010400115110571F7C9
:10158000CE01DF91CF911F910F91FF90EF90DF90EF
:10159000CF90089597FB092E07260AD077FD04D037
:1015A0000CD006D000201AF4709561957F4F0895F5
:1015B000F6F7909581959F4F0895AA1BBB1B51E1AB
:1015C00007C0AA1FBB1FA617B70710F0A61BB70BB3
:1015D000881F991F5A95A9F780959095BC01CD0158
:1015E0000895EE0FFF1F0590F491E02D0994F894F3
:1015F000FFCF02030408090A1213140506070B0C97
:101600000D15161700E100000000000001010000A8
:101610000000A908A00A48086F085608D108D50894
:10162000000000007909A00A1B0AD809CB09FFFFB6
:10163000FFFFFFFFFFFFFFFFFFFFFFFFFFFFFFFFBA
:10164000FFFFFFFFFFFFFFFFFFFFFFFFFFFFFFFFAA
:10165000FFFFFFFFFFFFFFFFFFFFFFFFFFFFFFFF9A
:10166000FFFFFFFFFFFFFFFFFFFFFFFFFFFFFFFF8A
:1070000055C000006EC000006CC000006AC00000E7
:1070100068C0000066C0000064C0000062C00000DC
:1070200060C000005EC00000F2C400005AC0000052
:1070300058C0000056C0000054C0000052C00000FC
:1070400050C0000078C000004CC000004AC00000E2
:1070500048C0000046C0000044C0000042C000001C
:1070600040C000003EC000003CC000003AC000002C
:1070700038C0000036C0000034C0000032C000003C
:1070800030C000002EC000002CC000002AC000004C
:1070900028C0000026C0000024C0000022C000005C
:1070A00020C000001EC000001CC0000011241FBE34
:1070B000CFEFDAE0DEBFCDBF11E0A0E0B1E0E2E368
:1070C000FFE702C005900D92A83AB107D9F711E089
:1070D000A8EAB1E001C01D92AE3BB107E1F78FD342
:1070E00026C78ECFF89410926F00109281001092F4
:1070F00085001092840081E085BF15BE47985D9A97
:10710000289A0C94000008952091B2013091B301A7
:107110002F5F3F4F3093B3012093B201932F37FF7E
:1071200003C08EEF831B982F990F921710F4479886
:107130000895479A08951F920F920FB60F92112447
:107140002F938F939F93EF93FF931092850010924C
:1071500084008091A8019091A901009741F00197C6
:107160009093A9018093A801892B09F45D9A8091DD
:10717000AA019091AB01009741F001979093AB0168
:107180008093AA01892B09F4289AE0E0F0E0859128
:1071900094918F5F9F4F49F08091AC019091AD0128
:1071A00001969093AD018093AC01FF91EF919F9177
:1071B0008F912F910F900FBE0F901F90189584E024
:1071C0008093E9000DC08091E8008B778093E80000
:1071D00003C08EB3882351F08091E80082FFF9CF7D
:1071E0008091E80085FFEFCF8091F1000895982FFE
:1071F00083E08093E9008091E80085FD0DC08091D7
:10720000E8008E778093E80003C08EB3882369F08E
:107210008091E80080FFF9CF9093F1005D9884E6BB
:1072200090E09093A9018093A80108954F925F92F6
:107230006F927F928F929F92AF92BF92CF92DF9286
:10724000EF92FF920F931F93CF93DF9384E080938D
:10725000E9008091E80082FF57C2289884E690E018
:107260009093AB018093AA01AADF182F853481F493
:107270008CE49DE19093AD018093AC0107B600FCD6
:10728000FDCFF999FECF81E180935700E89503C0C7
:10729000843519F494DF8DE00DC28C34E1F3803530
:1072A000D1F3843721F484E4A2DF80E003C2813685
:1072B00011F489E5FFC18134B1F481DF182F7FDF3C
:1072C00090E0880F991FAA2797FDA095BA2F312F1C
:1072D000330F20E0442737FD4095542F822B932B0A
:1072E000A42BB52BB8C1803711F483E5E3C18335F6
:1072F00049F4C0E0D1E089917ADF21E0C730D207BC
:10730000D1F7D9C1863521F481E371DF80E3D2C1A1
:10731000833731F487E86BDF85E969DF8EE1CAC125
:107320008536B9F4E0E0F0E093E085E09093570013
:10733000E89507B600FCFDCF80935700E89507B6A7
:1073400000FCFDCFE058FF4FA0E7E030FA0771F7EF
:10735000A2CF823739F4E1E0F0E089E08093570072
:107360008491A8C1863439F4E0E0F0E089E08093AC
:10737000570084919FC18E3439F4E3E0F0E089E056
:1073800080935700849196C1813539F4E2E0F0E0B2
:1073900089E08093570084918DC1823631F489E56C
:1073A00026DF80E024DF80E885C1823419F087364B
:1073B00009F0E5C01092AD011092AC0100DF082F7A
:1073C000FEDEF82EFCDE682E8554823008F071C196
:1073D000902F80E0CF2DD0E0C82BD92B10926F00DA
:1073E000173609F04BC081E180935700E895DD2402
:1073F000CC24C3943FC0E090AE01F090AF01009167
:10740000B0011091B101B6E46B16D9F4ED2DF0E0A6
:10741000EE29FF29E4918E2FEADEDD2081F082E063
:1074200090E0A0E0B0E0E80EF91E0A1F1B1FE092FA
:10743000AE01F092AF010093B0011093B101DC24D2
:1074400018C0D801C701B695A7959795879559D5C6
:10745000CEDE82E090E0A0E0B0E0E80EF91E0A1F68
:107460001B1FE092AE01F092AF010093B0011093A8
:10747000B1012197209709F0BECF7DC08090AE0169
:107480009090AF01A090B001B090B10196E4691660
:1074900009F05DC083E0F40180935700E89507B6DA
:1074A00000FCFDCF54C0F6E46F1661F5772031F192
:1074B000E090AE01F090AF010091B0011091B101E8
:1074C0007EDED82ECC24852D90E08C299D29F701D5
:1074D0000C0140925700E895112482E090E0A0E072
:1074E000B0E0E80EF91E0A1F1B1FE092AE01F092F9
:1074F000AF010093B0011093B10102C060DE582EBD
:10750000742423C0E090AE01F090AF010091B0016F
:107510001091B10116950795F794E79450DE682F06
:10752000C701F7D48091AE019091AF01A091B00155
:10753000B091B1010296A11DB11D8093AE0190934F
:10754000AF01A093B001B093B101219704C05524BD
:10755000772444244394209709F0A5CF96E4691634
:1075600041F485E0F40180935700E89507B600FCEC
:10757000FDCF8DE03CDE82E080936F009CC08334C1
:1075800071F40091AE011091AF0119DE90E021E09D
:10759000F8010C0120935700E89511247CCE833626
:1075A00019F5E090AE01F090AF010091B00110919B
:1075B000B10105DEF701E16090E021E00C012093CC
:1075C0005700E895112482E090E0A0E0B0E0E80EDA
:1075D000F91E0A1F1B1FE092AE01F092AF0100934B
:1075E000B0011093B10157CE8D3661F4E091AE0138
:1075F000F091AF0185E080935700E89507B600FC55
:10760000FDCF49CE823551F4E091AE01F091AF014A
:1076100005911491812FEBDD802F4CC0843421F52E
:10762000E090AE01F090AF010091B0011091B10176
:1076300016950795F794E794C2DD682FC70169D4C2
:107640008091AE019091AF01A091B001B091B101D4
:107650000296A11DB11D8093AE019093AF01A0933E
:10766000B001B093B10117CE843609F5E090AE01B8
:10767000F090AF010091B0011091B101D801C701A4
:10768000B695A795979587953CD4B1DD82E090E0BB
:10769000A0E0B0E0E80EF91E0A1F1B1FE092AE0149
:1076A000F092AF010093B0011093B10104C08B318F
:1076B00011F08FE39CDD83E08093E9009091E80076
:1076C0008091E8008E778093E80095FF04C010C099
:1076D0008EB38823C9F08091E80080FFF9CF8091B4
:1076E000E8008E778093E80003C08EB3882361F0B2
:1076F0008091E80080FFF9CF84E08093E9008091D9
:10770000E8008B778093E800DF91CF911F910F9174
:10771000FF90EF90DF90CF90BF90AF909F908F90B1
:107720007F906F905F904F9008959091B601892F50
:107730008F77813249F58091B7018032A1F0813293
:1077400019F5913A09F58091E800877F8093E80068
:107750008DE091E067E070E00BD28091E8008B77DC
:107760008093E8000895913279F48091E800877F52
:107770008093E8008DE091E067E070E05DD2809159
:10778000E8008E778093E800089582E061EC42E0A3
:10779000B5D083E061E842E1B1D084E060E842E145
:1077A000ADC084B7877F84BF88E10FB6F89480931B
:1077B0006000109260000FBE20E880E090E00FB6FD
:1077C000F89420936100809361000FBE81E085BF33
:1077D00092E095BF3F9A209A559AE1E6F0E0208327
:1077E000108247985D9A289A109289008AEF8093B8
:1077F000880090936F0083E080938100F0C04091F7
:10780000000850910108109201081092000894B7E6
:1078100014BE88E10FB6F894809360001092600067
:107820000FBE292F30E0F901E270F07091FD18C011
:1078300090FF05C0859194918F5F9F4F81F423FF46
:107840000FC08091090190910A014817590741F032
:10785000E0E0F0E0859194918F5F9F4F09F042DC6A
:10786000A0DF78941092AD011092AC010CC0DEDC68
:1078700036D38091AC019091AD0181549F4110F0BD
:107880001092140141DC80911401882381F78091CA
:10789000E00081608093E00025DC80E090E00895C6
:1078A000FA01923049F0933061F09130F9F485E1BA
:1078B00091E022E130E01EC087E291E02EE330E06B
:1078C00019C0882329F485E691E024E030E012C055
:1078D000813029F489E691E022E230E00BC0823069
:1078E00029F48DE891E028E130E004C080E090E0E8
:1078F00020E030E091838083C90108958093E900FE
:107900008091EB0081608093EB001092ED0060931A
:10791000EC004093ED008091EE00881F8827881FBF
:1079200008958091B60188238CF403C08EB3882318
:10793000B1F08091E80082FFF9CF8091E8008B7769
:107940008093E80008958EB3882349F08091E80081
:1079500080FFF9CF8091E8008E778093E80008954A
:10796000EF92FF920F931F9345D04CD008ED10E09B
:10797000F80180818F778083808180688083808117
:107980008F7D808319BC1EBA1092B40180EEE82E60
:10799000F12CF70180818B7F8083F80180818160E9
:1079A000808380E060E042E0A9DFE1EEF0E08081EA
:1079B0008E7F8083E2EEF0E0808181608083808131
:1079C00088608083F70180818E7F8083F8018081C9
:1079D000806180831F910F91FF90EF900895E7EDF4
:1079E000F0E08081816080838AE482BF81E08093BF
:1079F000B501B6CFE8EDF0E080818E7F80831092F4
:107A0000E20008951092DA001092E10008951F92AA
:107A10000F920FB60F9211242F933F934F935F93C2
:107A20006F937F938F939F93AF93BF93EF93FF9346
:107A30008091DA0080FF1BC08091D80080FF17C0C2
:107A40008091DA008E7F8093DA008091D90080FFE8
:107A50000BC080E189BD82E189BD09B400FEFDCF84
:107A600081E08EBB3BD203C019BC1EBA37D28091D5
:107A7000E10080FF17C08091E20080FF13C0809179
:107A8000E2008E7F8093E2008091E200806180932B
:107A9000E2008091D80080628093D80019BC85E014
:107AA0008EBB1CD28091E10084FF2CC08091E2004B
:107AB00084FF28C080E189BD82E189BD09B400FE50
:107AC000FDCF8091D8008F7D8093D8008091E10018
:107AD0008F7E8093E1008091E2008F7E8093E200B0
:107AE0008091E20081608093E2008091B40188235C
:107AF00031F48091E30087FD02C081E001C084E0A1
:107B00008EBBECD18091E10083FF21C08091E20027
:107B100083FF1DC08091E100877F8093E10082E0B8
:107B20008EBB1092B4018091E1008E7F8093E100C2
:107B30008091E2008E7F8093E2008091E20080617C
:107B40008093E20080E060E042E0D8DEC7D1FF91A0
:107B5000EF91BF91AF919F918F917F916F915F91C5
:107B60004F913F912F910F900FBE0F901F9018953E
:107B70009C014091BC015091BD014617570718F474
:107B8000F90190E044C06115710511F0AB01F8CF27
:107B90008091E8008E778093E80040E050E0F0CFDD
:107BA0008EB3882309F444C0853009F443C0809122
:107BB000E80083FF02C081E008958091E80082FD23
:107BC00031C08091E80080FF22C08091F300909145
:107BD000F200782F60E0292F30E0262B372B07C0EA
:107BE00081918093F100415050402F5F3F4F4115EC
:107BF000510519F02830310598F390E0283031050F
:107C000009F491E08091E8008E778093E8004115B7
:107C1000510531F6992321F605C08EB3882341F032
:107C2000853041F08091E80082FFF7CF80E0089531
:107C300082E0089583E008959C016115710529F49F
:107C40008091E8008B778093E800F90126C08EB31D
:107C5000882391F1853091F18091E80083FF02C083
:107C600081E008958091E80082FFF1CF06C0809105
:107C7000F10081936150704059F02091F3008091A0
:107C8000F200322F20E090E0822B932B892B79F7A2
:107C90008091E8008B778093E80061157105B9F653
:107CA00005C08EB3882341F0853041F08091E80013
:107CB00080FFF7CF80E0089582E0089583E0089583
:107CC0000F931F93DF93CF9300D0CDB7DEB7E6EBD2
:107CD000F1E08091F100819381E0EE3BF807C9F774
:107CE00024DD8091E80083FFE4C08091B60190918B
:107CF000B701953009F46DC0963040F4913081F1B0
:107D0000913070F0933009F0D4C02AC0983009F453
:107D1000A3C0993009F4B2C0963009F0CAC07CC043
:107D2000803809F4C6C0823809F0C3C08091BA0116
:107D300087708093E9008091EB001092E900209118
:107D4000E800277F2093E80090E025E0969587954E
:107D50002A95E1F781708093F1001092F10087C0BD
:107D6000882319F0823009F0A4C08F71823009F0A5
:107D7000A0C08091B801882331F52091BA01277005
:107D800009F497C02093E9008091EB0080FF1BC0AD
:107D9000933021F48091EB00806213C08091EB005E
:107DA00080618093EB0081E090E002C0880F991F12
:107DB0002A95E2F78093EA001092EA008091EB00A6
:107DC00088608093EB001092E9008091E800877F43
:107DD00051C0882309F06DC01091B8011F770FB70B
:107DE000F8948091E800877F8093E8009ADD809185
:107DF000E80080FFFCCF8091E3008078812B8093A6
:107E0000E30080688093E300112311F482E001C055
:107E100083E08EBB0FBF4DC08058823008F049C050
:107E20008091B8019091B9016091BA01AE014F5FA4
:107E30005F4F36DDBC01009709F43BC08091E8003C
:107E4000877F8093E80089819A8192DE8091E800A3
:107E50008B778093E8002DC0803859F58091E80039
:107E6000877F8093E8008091B4018093F100809136
:107E7000E8008E778093E80054DD1BC08823C9F4A6
:107E80009091B8019230A8F48091E800877F8093A8
:107E9000E8009093B40145DD8091B401882331F46A
:107EA0008091E30087FD02C081E001C084E08EBBC9
:107EB0006CDC8091E80083FF0AC08091EB00806257
:107EC0008093EB008091E800877F8093E8000F901B
:107ED0000F90CF91DF911F910F91089508951F93F7
:107EE0008EB3882361F01091E9001092E90080912F
:107EF000E80083FF01C0E4DE17701093E9001F91D2
:107F00000895F999FECF92BD81BDF89A992780B561
:107F10000895262FF999FECF1FBA92BD81BD20BDCD
:107F20000FB6F894FA9AF99A0FBE01960895F8944C
:107F3000FFCF4341544552494E4100777700080036
:107F40000000000000080112011001020000088674
:107F500028020001000201000109023E00020100A6
:107F60008032090400000102020100052400100112
:107F7000042402040524060001070582030800FF0B
:107F800009040100020A00000007050402100001B4
:107F9000070583021000010403090422035300654E
:107FA00000650065006400750069006E006F0020C8
:107FB000004C0069007400650020002000000018DB
:107FC000035300650065006500640073007400756C
:107FD00000640069006F00000000FFFFFFFFFFFF6B
:107FE000FFFFFFFFFFFFFFFFFFFFFFFFFFFFFFFFA1
:107FF000FFFFFFFFFFFFFFFFFFFFFFFFFFFFFFFF91
:00000001FF
